:020000040000FA
:0400000002EF00F01B
:020004000000FA
:10003000CFEC0AF010EC0BF0010E006E016A026AC0
:10004000022EFED7012EFCD7002EFAD710EC0BF0B3
:10005000480E056E1CEC0BF0490E056E1CEC0BF007
:100060002C0E056E1CEC0BF0200E056E1CEC0BF03C
:10007000500E056E1CEC0BF0520E056E1CEC0BF0D6
:10008000450E056E1CEC0BF0530E056E1CEC0BF0D0
:10009000530E056E1CEC0BF0200E056E1CEC0BF0E5
:1000A000530E056E1CEC0BF0320E056E1CEC0BF0C3
:1000B000200E056E1CEC0BF0540E056E1CEC0BF0C4
:1000C0004F0E056E1CEC0BF0200E056E1CEC0BF0B9
:1000D00014EC0BF0530E056E1CEC0BF0540E056E79
:1000E0001CEC0BF0410E056E1CEC0BF0520E056E75
:1000F0001CEC0BF0540E056E1CEC0BF0200E056E84
:100100001CEC0BF04D0E056E1CEC0BF0410E056E59
:100110001CEC0BF0530E056E1CEC0BF0540E056E30
:100120001CEC0BF0450E056E1CEC0BF0520E056E30
:100130001CEC0BF04D0E056E1CEC0BF0490E056E21
:100140001CEC0BF04E0E056E1CEC0BF0440E056E15
:100150001CEC0BF00301050E176F186F196F1A6F67
:1001600080A813D0186F80A810D0196F80A80DD068
:100170001A6F80A80AD01A07FCE11907F7E11807DF
:10018000F2E11707EDE1ABEF00F080A8FED7000029
:10019000020E056E18EC0BF010EC0BF0200E056E45
:1001A0001CEC0BF0470E056E1CEC0BF0550E056EAB
:1001B0001CEC0BF0450E056E1CEC0BF0530E056E9F
:1001C0001CEC0BF0530E056E1CEC0BF0200E056EB4
:1001D0001CEC0BF0540E056E1CEC0BF0480E056E7B
:1001E0001CEC0BF0450E056E1CEC0BF0200E056EA2
:1001F0001CEC0BF0460E056E1CEC0BF04F0E056E62
:100200001CEC0BF0550E056E1CEC0BF0520E056E3F
:100210001CEC0BF0200E056E1CEC0BF014EC0BF03C
:10022000200E056E1CEC0BF0200E056E1CEC0BF086
:10023000200E056E1CEC0BF0440E056E1CEC0BF052
:10024000490E056E1CEC0BF0470E056E1CEC0BF016
:10025000490E056E1CEC0BF0540E056E1CEC0BF0F9
:10026000200E056E1CEC0BF0430E056E1CEC0BF023
:100270004F0E056E1CEC0BF0440E056E1CEC0BF0E3
:10028000450E056E1CEC0BF0200E056E1CEC0BF001
:10029000200E056E1CEC0BF0200E056E1CEC0BF016
:1002A000100E006E016A026A022EFED7012EFCD7E4
:1002B000002EFAD7020E056E18EC0BF010EC0BF0C6
:1002C000450E056E1CEC0BF0410E056E1CEC0BF0A0
:1002D000430E056E1CEC0BF0480E056E1CEC0BF08B
:1002E000200E056E1CEC0BF0440E056E1CEC0BF0A2
:1002F000490E056E1CEC0BF0470E056E1CEC0BF066
:10030000490E056E1CEC0BF0540E056E1CEC0BF048
:10031000200E056E1CEC0BF0490E056E1CEC0BF06C
:10032000530E056E1CEC0BF0200E056E1CEC0BF052
:10033000490E056E1CEC0BF04E0E056E1CEC0BF01E
:1003400014EC0BF0200E056E1CEC0BF0200E056E6D
:100350001CEC0BF0540E056E1CEC0BF0480E056EF9
:100360001CEC0BF0450E056E1CEC0BF0200E056E20
:100370001CEC0BF0520E056E1CEC0BF0410E056EE2
:100380001CEC0BF04E0E056E1CEC0BF0470E056ED0
:100390001CEC0BF0450E056E1CEC0BF0200E056EF0
:1003A0001CEC0BF04F0E056E1CEC0BF0460E056EB0
:1003B0001CEC0BF0200E056E1CEC0BF0200E056EF5
:1003C0001CEC0BF0100E006E016A026A022EFED7C2
:1003D000012EFCD7002EFAD7020E056E18EC0BF09A
:1003E00010EC0BF0200E056E1CEC0BF0200E056ED1
:1003F0001CEC0BF05A0E056E1CEC0BF0450E056E56
:100400001CEC0BF0520E056E1CEC0BF04F0E056E43
:100410001CEC0BF0200E056E1CEC0BF0540E056E60
:100420001CEC0BF04F0E056E1CEC0BF0200E056E55
:100430001CEC0BF0460E056E1CEC0BF0490E056E25
:100440001CEC0BF0560E056E1CEC0BF0450E056E09
:100450001CEC0BF0200E056E1CEC0BF0200E056E54
:100460001CEC0BF014EC0BF0200E056E1CEC0BF0EA
:10047000200E056E1CEC0BF0200E056E1CEC0BF034
:10048000200E056E1CEC0BF0200E056E1CEC0BF024
:10049000200E056E1CEC0BF0200E056E1CEC0BF014
:1004A000200E056E1CEC0BF0200E056E1CEC0BF004
:1004B000200E056E1CEC0BF0200E056E1CEC0BF0F4
:1004C000200E056E1CEC0BF0200E056E1CEC0BF0E4
:1004D000200E056E1CEC0BF0200E056E1CEC0BF0D4
:1004E000200E056E1CEC0BF0100E006E016A026A05
:1004F000022EFED7012EFCD7002EFAD7020E056E73
:1005000018EC0BF010EC0BF0500E056E1CEC0BF021
:10051000520E056E1CEC0BF0450E056E1CEC0BF03C
:10052000530E056E1CEC0BF0530E056E1CEC0BF01D
:10053000200E056E1CEC0BF0530E056E1CEC0BF040
:10054000570E056E1CEC0BF0320E056E1CEC0BF01A
:10055000200E056E1CEC0BF0540E056E1CEC0BF01F
:100560004F0E056E1CEC0BF0200E056E1CEC0BF014
:10057000470E056E1CEC0BF04F0E056E1CEC0BF0DD
:10058000200E056E1CEC0BF014EC0BF0540E056EF7
:100590001CEC0BF0480E056E1CEC0BF0520E056EB9
:1005A0001CEC0BF04F0E056E1CEC0BF0550E056E9F
:1005B0001CEC0BF0470E056E1CEC0BF0480E056EA4
:1005C0001CEC0BF0200E056E1CEC0BF04E0E056EB5
:1005D0001CEC0BF0550E056E1CEC0BF04D0E056E71
:1005E0001CEC0BF0420E056E1CEC0BF0450E056E7C
:1005F0001CEC0BF0520E056E1CEC0BF0530E056E4E
:100600001CEC0BF0200E056E1CEC0BF0100E006EB7
:10061000016A026A022EFED7012EFCD7002EFAD7FD
:10062000020E056E18EC0BF010EC0BF0200E056EB0
:100630001CEC0BF0200E056E1CEC0BF0500E056E42
:100640001CEC0BF0520E056E1CEC0BF0450E056E0B
:100650001CEC0BF0530E056E1CEC0BF0530E056EEC
:100660001CEC0BF0200E056E1CEC0BF0530E056E0F
:100670001CEC0BF0570E056E1CEC0BF0330E056EE8
:100680001CEC0BF0200E056E1CEC0BF0540E056EEE
:100690001CEC0BF04F0E056E1CEC0BF0200E056EE3
:1006A0001CEC0BF0200E056E1CEC0BF0200E056E02
:1006B0001CEC0BF014EC0BF0200E056E1CEC0BF098
:1006C000200E056E1CEC0BF0530E056E1CEC0BF0AF
:1006D000450E056E1CEC0BF04C0E056E1CEC0BF081
:1006E000450E056E1CEC0BF0430E056E1CEC0BF07A
:1006F000540E056E1CEC0BF0200E056E1CEC0BF07E
:10070000540E056E1CEC0BF0480E056E1CEC0BF045
:10071000450E056E1CEC0BF0200E056E1CEC0BF06C
:10072000230E056E1CEC0BF0200E056E1CEC0BF07E
:10073000200E056E1CEC0BF0200E056E1CEC0BF071
:10074000100E006E016A026A022EFED7012EFCD73F
:10075000002EFAD7020E056E18EC0BF010EC0BF021
:10076000410E056E1CEC0BF0460E056E1CEC0BF0FA
:10077000540E056E1CEC0BF0450E056E1CEC0BF0D8
:10078000520E056E1CEC0BF0200E056E1CEC0BF0EF
:10079000470E056E1CEC0BF0550E056E1CEC0BF0B5
:1007A000450E056E1CEC0BF0530E056E1CEC0BF0A9
:1007B000530E056E1CEC0BF0490E056E1CEC0BF095
:1007C0004E0E056E1CEC0BF0470E056E1CEC0BF08C
:1007D000200E056E1CEC0BF0200E056E1CEC0BF0D1
:1007E00014EC0BF0540E056E1CEC0BF0480E056E6D
:1007F0001CEC0BF0450E056E1CEC0BF0200E056E8C
:100800001CEC0BF0430E056E1CEC0BF04F0E056E4E
:100810001CEC0BF0440E056E1CEC0BF0450E056E47
:100820001CEC0BF02C0E056E1CEC0BF0200E056E74
:100830001CEC0BF0540E056E1CEC0BF0480E056E14
:100840001CEC0BF0450E056E1CEC0BF0200E056E3B
:100850001CEC0BF0200E056E1CEC0BF0200E056E50
:100860001CEC0BF0100E006E016A026A022EFED71D
:10087000012EFCD7002EFAD7020E056E18EC0BF0F5
:1008800010EC0BF0530E056E1CEC0BF0430E056ED6
:100890001CEC0BF0520E056E1CEC0BF0450E056EB9
:1008A0001CEC0BF0450E056E1CEC0BF04E0E056EAD
:1008B0001CEC0BF0200E056E1CEC0BF0570E056EB9
:1008C0001CEC0BF0490E056E1CEC0BF04C0E056E8B
:1008D0001CEC0BF04C0E056E1CEC0BF0200E056EA4
:1008E0001CEC0BF0530E056E1CEC0BF0480E056E65
:1008F0001CEC0BF04F0E056E1CEC0BF0570E056E4A
:100900001CEC0BF014EC0BF0420E056E1CEC0BF023
:100910004C0E056E1CEC0BF0410E056E1CEC0BF042
:10092000430E056E1CEC0BF04B0E056E1CEC0BF031
:10093000200E056E1CEC0BF0260E056E1CEC0BF069
:10094000200E056E1CEC0BF0570E056E1CEC0BF028
:10095000480E056E1CEC0BF0490E056E1CEC0BF0FE
:10096000540E056E1CEC0BF0450E056E1CEC0BF0E6
:10097000200E056E1CEC0BF0230E056E1CEC0BF02C
:10098000530E056E1CEC0BF0100E006E016A026A2D
:10099000022EFED7012EFCD7002EFAD7020E056ECE
:1009A00018EC0BF010EC0BF0200E056E1CEC0BF0AD
:1009B000420E056E1CEC0BF04C0E056E1CEC0BF0A1
:1009C000410E056E1CEC0BF0430E056E1CEC0BF09B
:1009D0004B0E056E1CEC0BF0200E056E1CEC0BF0A4
:1009E0003D0E056E1CEC0BF0200E056E1CEC0BF0A2
:1009F000430E056E1CEC0BF04F0E056E1CEC0BF05D
:100A0000520E056E1CEC0BF0520E056E1CEC0BF03A
:100A1000450E056E1CEC0BF0430E056E1CEC0BF046
:100A2000540E056E1CEC0BF014EC0BF0200E056E52
:100A30001CEC0BF0230E056E1CEC0BF0200E056E6B
:100A40001CEC0BF0410E056E1CEC0BF04E0E056E0F
:100A50001CEC0BF0440E056E1CEC0BF0200E056E2A
:100A60001CEC0BF0500E056E1CEC0BF04F0E056EDF
:100A70001CEC0BF0530E056E1CEC0BF0490E056ED2
:100A80001CEC0BF0540E056E1CEC0BF0490E056EC1
:100A90001CEC0BF04F0E056E1CEC0BF04E0E056EB1
:100AA0001CEC0BF0200E056E1CEC0BF0100E006E13
:100AB000016A026A022EFED7012EFCD7002EFAD759
:100AC000020E056E18EC0BF010EC0BF0200E056E0C
:100AD0001CEC0BF0570E056E1CEC0BF0480E056E6F
:100AE0001CEC0BF0490E056E1CEC0BF0540E056E61
:100AF0001CEC0BF0450E056E1CEC0BF0200E056E89
:100B00001CEC0BF03D0E056E1CEC0BF0200E056E80
:100B10001CEC0BF0200E056E1CEC0BF0200E056E8D
:100B20001CEC0BF0200E056E1CEC0BF0200E056E7D
:100B30001CEC0BF0200E056E1CEC0BF0200E056E6D
:100B40001CEC0BF0200E056E1CEC0BF014EC0BF003
:100B5000430E056E1CEC0BF04F0E056E1CEC0BF0FB
:100B6000520E056E1CEC0BF0520E056E1CEC0BF0D9
:100B7000450E056E1CEC0BF0430E056E1CEC0BF0E5
:100B8000540E056E1CEC0BF0200E056E1CEC0BF0E9
:100B9000230E056E1CEC0BF0200E056E1CEC0BF00A
:100BA000420E056E1CEC0BF0550E056E1CEC0BF0A6
:100BB000540E056E1CEC0BF0200E056E1CEC0BF0B9
:100BC000200E056E1CEC0BF0200E056E1CEC0BF0DD
:100BD000100E006E016A026A022EFED7012EFCD7AB
:100BE000002EFAD7020E056E18EC0BF010EC0BF08D
:100BF000200E056E1CEC0BF0570E056E1CEC0BF076
:100C0000520E056E1CEC0BF04F0E056E1CEC0BF03B
:100C10004E0E056E1CEC0BF0470E056E1CEC0BF037
:100C2000200E056E1CEC0BF0500E056E1CEC0BF04C
:100C30004F0E056E1CEC0BF0530E056E1CEC0BF00A
:100C4000490E056E1CEC0BF0540E056E1CEC0BF0FF
:100C5000490E056E1CEC0BF04F0E056E1CEC0BF0F4
:100C60004E0E056E1CEC0BF0200E056E1CEC0BF00E
:100C700014EC0BF0200E056E1CEC0BF0200E056E34
:100C80001CEC0BF0200E056E1CEC0BF0200E056E1C
:100C90001CEC0BF0200E056E1CEC0BF0200E056E0C
:100CA0001CEC0BF0200E056E1CEC0BF0200E056EFC
:100CB0001CEC0BF0200E056E1CEC0BF0200E056EEC
:100CC0001CEC0BF0200E056E1CEC0BF0200E056EDC
:100CD0001CEC0BF0200E056E1CEC0BF0200E056ECC
:100CE0001CEC0BF0200E056E1CEC0BF0200E056EBC
:100CF0001CEC0BF0100E006E016A026A022EFED789
:100D0000012EFCD7002EFAD7020E056E18EC0BF060
:100D10000F01F00E396FCF0E936E0301000E006FBE
:100D2000016F026F036F046F576F676F300E056FAF
:100D3000310E066F03EE12F09EEF06F00400000E77
:100D4000576F676F020E056E18EC0BF010EC0BF08E
:100D5000470E056E1CEC0BF0550E056E1CEC0BF0EF
:100D6000450E056E1CEC0BF0530E056E1CEC0BF0E3
:100D7000530E056E1CEC0BF0200E056E1CEC0BF0F8
:100D8000540E056E1CEC0BF0480E056E1CEC0BF0BF
:100D9000450E056E1CEC0BF0200E056E1CEC0BF0E6
:100DA000440E056E1CEC0BF0490E056E1CEC0BF0AE
:100DB000470E056E1CEC0BF0490E056E1CEC0BF09B
:100DC000540E056E1CEC0BF0530E056E1CEC0BF074
:100DD00014EC0BF0200E056E1CEC0BF0200E056ED3
:100DE0001CEC0BF0200E056E1CEC0BF0200E056EBB
:100DF0001CEC0BF0200E056E1CEC0BF0200E056EAB
:100E00001CEC0BF0200E056E1CEC0BF0200E056E9A
:100E10001CEC0BF0200E056E1CEC0BF0200E056E8A
:100E20001CEC0BF0200E056E1CEC0BF0200E056E7A
:100E30001CEC0BF0200E056E1CEC0BF0200E056E6A
:100E40001CEC0BF0200E056E1CEC0BF0200E056E5A
:100E50001CEC0BF0300E056F060E046F14EC0BF05B
:100E60000F0E056E18EC0BF00551056E1CEC0BF027
:100E7000100E056E18EC0BF081A00BD000D080A8EE
:100E800001D0ECD780A8FED7052B0407E3E02EEFB6
:100E900007F00551006F81A0FCD70000140E056E0D
:100EA00018EC0BF0300E056F060E046F0551056E41
:100EB0001CEC0BF0100E056E18EC0BF081A00AD0A4
:100EC00080A801D0F3D780A8FED7052B0407EAE05D
:100ED00056EF07F00551016F81A0FCD70000140EFA
:100EE000056E18EC0BF0300E056F060E046F055101
:100EF000056E1CEC0BF0100E056E18EC0BF081A0CB
:100F00000AD080A801D0F3D780A8FED7052B04070C
:100F1000EAE077EF07F00551026F81A0FCD70000EF
:100F2000140E056E18EC0BF0300E056F060E046FF4
:100F30000551056E1CEC0BF0100E056E18EC0BF055
:100F400081A00AD080A801D0F3D780A8FED7052BB6
:100F50000407EAE098EF07F00551036F81A0FCD782
:100F60000000300E005F015F025F035FB8EF07F023
:100F70001751376F1851386F1951396F1A513A6F2D
:100F80000051476F0151486F0251496F03514A6F39
:100F9000E6EF07F0572BFF0E376FFA0E476FEBEFB8
:100FA00007F0572BFF0E386FFA0E486FF0EF07F07F
:100FB000572BFF0E396FFA0E496FF5EF07F0572BDD
:100FC000FF0E3A6FFA0E4A6FF8EF07F03751475DA0
:100FD000E1E0EBEF07F03851485DE3E0F0EF07F0B8
:100FE0003951495DE5E0F5EF07F03A514A5DE7E038
:100FF000FAEF07F038EF08F0672BFF0E386F43EF7A
:1010000008F0672BFF0E396F43EF08F0672BFF0ED8
:101010003A6F43EF08F0672BFF0E376F4EEF08F083
:10102000672BFF0E396F4EEF08F0672BFF0E3A6FFC
:101030004EEF08F0672BFF0E376F59EF08F0672B64
:10104000FF0E386F59EF08F0672BFF0E3A6F59EF1C
:1010500008F0672BFF0E376F64EF08F0672BFF0E69
:10106000386F64EF08F0672BFF0E396F64EF08F0FC
:101070004751385DC1E04751395DC3E047513A5DA2
:10108000C5E043EF08F04851375DC5E04851395D90
:10109000C7E048513A5DC9E04EEF08F04951375D6D
:1010A000C9E04951385DCBE049513A5DCDE059EF97
:1010B00008F04A51375DCDE04A51385DCFE04A51E2
:1010C000395DD1E064EF08F03A0E0661FAEF08F0FE
:1010D0006AEF08F0300E0027012702270327572761
:1010E000672710EC0BF0200E056E1CEC0BF0200EA9
:1010F000056E1CEC0BF0470E056E1CEC0BF0550E4C
:10110000056E1CEC0BF0450E056E1CEC0BF0530E3F
:10111000056E1CEC0BF0530E056E1CEC0BF006512B
:10112000056E1CEC0BF03A0E056E1CEC0BF0200E5D
:10113000056E1CEC0BF00051056E1CEC0BF0015120
:10114000056E1CEC0BF00251056E1CEC0BF003510C
:10115000056E1CEC0BF0200E056E1CEC0BF0200E47
:10116000056E1CEC0BF014EC0BF0420E056E1CEC43
:101170000BF04C0E056E1CEC0BF0410E056E1CECDA
:101180000BF0430E056E1CEC0BF04B0E056E1CECC9
:101190000BF03D0E056E1CEC0BF05751056E1CEC70
:1011A0000BF0200E056E1CEC0BF0570E056E1CECC0
:1011B0000BF0480E056E1CEC0BF0490E056E1CEC96
:1011C0000BF0540E056E1CEC0BF0450E056E1CEC7E
:1011D0000BF03D0E056E1CEC0BF06751056E1CEC20
:1011E0000BF0200E056E1CEC0BF0300E575F675FA6
:1011F0008BEF09F0300E002701270227032757271E
:10120000672710EC0BF0200E056E1CEC0BF0470E60
:10121000056E1CEC0BF0550E056E1CEC0BF0450E2C
:10122000056E1CEC0BF0530E056E1CEC0BF0530E10
:10123000056E1CEC0BF0310E056E1CEC0BF00A0E6B
:10124000065D056E1CEC0BF03A0E056E1CEC0BF007
:10125000200E056E1CEC0BF00051056E1CEC0BF023
:101260000151056E1CEC0BF00251056E1CEC0BF0ED
:101270000351056E1CEC0BF0200E056E1CEC0BF000
:10128000200E056E1CEC0BF014EC0BF0420E056EFC
:101290001CEC0BF04C0E056E1CEC0BF0410E056EB9
:1012A0001CEC0BF0430E056E1CEC0BF04B0E056EA8
:1012B0001CEC0BF03D0E056E1CEC0BF05751056E4F
:1012C0001CEC0BF0200E056E1CEC0BF0570E056E9F
:1012D0001CEC0BF0480E056E1CEC0BF0490E056E75
:1012E0001CEC0BF0540E056E1CEC0BF0450E056E5D
:1012F0001CEC0BF03D0E056E1CEC0BF06751056EFF
:101300001CEC0BF0200E056E1CEC0BF0300E575F42
:10131000675F8BEF09F0150E006E016A026A022EFC
:10132000FED7012EFCD7002EFAD7300E005F015FEA
:10133000025F035F0C0E076F0051EF6EE92A015147
:10134000EF6EE92A0251EF6EE92A0351EF6EE92AA6
:10135000E92A0707FDE10400040E575D06E03C0E94
:10136000065D05E0062B9EEF06F042EF0AF0300E18
:101370001727182719271A2710EC0BF0200E056ED7
:101380001CEC0BF0200E056E1CEC0BF0200E056E15
:101390001CEC0BF0430E056E1CEC0BF04F0E056EB3
:1013A0001CEC0BF0440E056E1CEC0BF0450E056EAC
:1013B0001CEC0BF03A0E056E1CEC0BF0200E056ECB
:1013C0001CEC0BF01751056E1CEC0BF01851056E60
:1013D0001CEC0BF01951056E1CEC0BF01A51056E4C
:1013E0001CEC0BF0200E056E1CEC0BF0200E056EB5
:1013F0001CEC0BF0200E056E1CEC0BF014EC0BF04B
:10140000200E056E1CEC0BF0200E056E1CEC0BF094
:10141000200E056E1CEC0BF0470E056E1CEC0BF05D
:10142000410E056E1CEC0BF04D0E056E1CEC0BF026
:10143000450E056E1CEC0BF0200E056E1CEC0BF03F
:101440004C0E056E1CEC0BF04F0E056E1CEC0BF0F9
:10145000530E056E1CEC0BF0540E056E1CEC0BF0DD
:10146000200E056E1CEC0BF0200E056E1CEC0BF034
:10147000200E056E1CEC0BF0200E056E1CEC0BF024
:10148000CDEF0AF0300E1727182719271A2710EC6E
:101490000BF0200E056E1CEC0BF0200E056E1CEC04
:1014A0000BF0200E056E1CEC0BF0430E056E1CECD1
:1014B0000BF04F0E056E1CEC0BF0440E056E1CEC91
:1014C0000BF0450E056E1CEC0BF03A0E056E1CEC95
:1014D0000BF0200E056E1CEC0BF01751056E1CEC8A
:1014E0000BF01851056E1CEC0BF01951056E1CEC3D
:1014F0000BF01A51056E1CEC0BF0200E056E1CEC67
:101500000BF0200E056E1CEC0BF0200E056E1CEC93
:101510000BF014EC0BF0200E056E1CEC0BF0200E03
:10152000056E1CEC0BF0200E056E1CEC0BF0470E4C
:10153000056E1CEC0BF0410E056E1CEC0BF04D0E15
:10154000056E1CEC0BF0450E056E1CEC0BF0200E2E
:10155000056E1CEC0BF0570E056E1CEC0BF04F0EDD
:10156000056E1CEC0BF04E0E056E1CEC0BF0210E04
:10157000056E1CEC0BF0200E056E1CEC0BF0200E23
:10158000056E1CEC0BF0200E056E1CEC0BF0200E13
:10159000056E1CEC0BF0CDEF0AF0CDEF0AF0806A7F
:1015A000959E959C959A95989590959295949596DB
:1015B0000E0EC16E8C8EFF0E036EFF0E046E40D8B1
:1015C000032EFBD7300E056ED89042D8FF0E036E67
:1015D000FF0E046E35D8032EFBD7300E056ED89063
:1015E00037D8FF0E046E2CD8180E056ED89030D860
:1015F000FF0E046E25D8200E056ED89029D87ED80F
:10160000280E056E15D80D0E056E12D8010E056E4A
:101610000FD8060E056E0CD8800E056E09D8120084
:10162000800E056E05D81200C00E056E01D812009E
:1016300065D8D89008D8120061D8D88004D8120094
:10164000042EFED7120004D8053A02D8053A12003B
:10165000D8A08C98D8B08C888C9A959095929594B7
:101660009596000000008C8C05AE8C9605BE8C868D
:1016700005AC8C9405BC8C8405AA8C9205BA8C822E
:1016800005A88C9005B88C80000000008C9C12008E
:101690009580958295849586D8A08C98D8B08C88B2
:1016A0008C8A000000008C8C00000000000000000C
:1016B000068E83A6069E068C83A4069C068A83A2B9
:1016C000069A068883A006988C9C00000000000003
:1016D000000000000000000000008C8C00000000F2
:1016E000068683A60696068483A40694068283A2B1
:1016F0000692068083A006908C9C1200D890C8DFCA
:0617000006BEFCD712003A
:00000001FF
